{
  "_format": "hh-sol-artifact-1",
  "contractName": "NFTMarketplace",
  "sourceName": "contracts/NftMarketplace.sol",
  "abi": [
    {
      "inputs": [],
      "stateMutability": "nonpayable",
      "type": "constructor"
    },
    {
      "anonymous": false,
      "inputs": [
        {
          "indexed": true,
          "internalType": "address",
          "name": "owner",
          "type": "address"
        },
        {
          "indexed": true,
          "internalType": "address",
          "name": "approved",
          "type": "address"
        },
        {
          "indexed": true,
          "internalType": "uint256",
          "name": "tokenId",
          "type": "uint256"
        }
      ],
      "name": "Approval",
      "type": "event"
    },
    {
      "anonymous": false,
      "inputs": [
        {
          "indexed": true,
          "internalType": "address",
          "name": "owner",
          "type": "address"
        },
        {
          "indexed": true,
          "internalType": "address",
          "name": "operator",
          "type": "address"
        },
        {
          "indexed": false,
          "internalType": "bool",
          "name": "approved",
          "type": "bool"
        }
      ],
      "name": "ApprovalForAll",
      "type": "event"
    },
    {
      "anonymous": false,
      "inputs": [
        {
          "indexed": false,
          "internalType": "uint256",
          "name": "_fromTokenId",
          "type": "uint256"
        },
        {
          "indexed": false,
          "internalType": "uint256",
          "name": "_toTokenId",
          "type": "uint256"
        }
      ],
      "name": "BatchMetadataUpdate",
      "type": "event"
    },
    {
      "anonymous": false,
      "inputs": [
        {
          "indexed": false,
          "internalType": "uint256",
          "name": "_tokenId",
          "type": "uint256"
        }
      ],
      "name": "MetadataUpdate",
      "type": "event"
    },
    {
      "anonymous": false,
      "inputs": [
        {
          "indexed": true,
          "internalType": "address",
          "name": "from",
          "type": "address"
        },
        {
          "indexed": true,
          "internalType": "address",
          "name": "to",
          "type": "address"
        },
        {
          "indexed": true,
          "internalType": "uint256",
          "name": "tokenId",
          "type": "uint256"
        }
      ],
      "name": "Transfer",
      "type": "event"
    },
    {
      "anonymous": false,
      "inputs": [
        {
          "indexed": false,
          "internalType": "uint256",
          "name": "indexedtokenId",
          "type": "uint256"
        },
        {
          "indexed": false,
          "internalType": "address payable",
          "name": "seller",
          "type": "address"
        },
        {
          "indexed": false,
          "internalType": "address payable",
          "name": "owner",
          "type": "address"
        },
        {
          "indexed": false,
          "internalType": "uint256",
          "name": "price",
          "type": "uint256"
        },
        {
          "indexed": false,
          "internalType": "bool",
          "name": "sold",
          "type": "bool"
        }
      ],
      "name": "idMarketItemCreated",
      "type": "event"
    },
    {
      "inputs": [
        {
          "internalType": "address",
          "name": "to",
          "type": "address"
        },
        {
          "internalType": "uint256",
          "name": "tokenId",
          "type": "uint256"
        }
      ],
      "name": "approve",
      "outputs": [],
      "stateMutability": "nonpayable",
      "type": "function"
    },
    {
      "inputs": [
        {
          "internalType": "address",
          "name": "owner",
          "type": "address"
        }
      ],
      "name": "balanceOf",
      "outputs": [
        {
          "internalType": "uint256",
          "name": "",
          "type": "uint256"
        }
      ],
      "stateMutability": "view",
      "type": "function"
    },
    {
      "inputs": [
        {
          "internalType": "uint256",
          "name": "tokenId",
          "type": "uint256"
        }
      ],
      "name": "createMarketSale",
      "outputs": [],
      "stateMutability": "payable",
      "type": "function"
    },
    {
      "inputs": [
        {
          "internalType": "string",
          "name": "tokenURI",
          "type": "string"
        },
        {
          "internalType": "uint256",
          "name": "price",
          "type": "uint256"
        }
      ],
      "name": "createToken",
      "outputs": [
        {
          "internalType": "uint256",
          "name": "",
          "type": "uint256"
        }
      ],
      "stateMutability": "payable",
      "type": "function"
    },
    {
      "inputs": [],
      "name": "fetchItemsListed",
      "outputs": [
        {
          "components": [
            {
              "internalType": "uint256",
              "name": "tokenId",
              "type": "uint256"
            },
            {
              "internalType": "address payable",
              "name": "seller",
              "type": "address"
            },
            {
              "internalType": "address payable",
              "name": "owner",
              "type": "address"
            },
            {
              "internalType": "uint256",
              "name": "price",
              "type": "uint256"
            },
            {
              "internalType": "bool",
              "name": "sold",
              "type": "bool"
            }
          ],
          "internalType": "struct NFTMarketplace.MarketItem[]",
          "name": "",
          "type": "tuple[]"
        }
      ],
      "stateMutability": "view",
      "type": "function"
    },
    {
      "inputs": [],
      "name": "fetchMarketItem",
      "outputs": [
        {
          "components": [
            {
              "internalType": "uint256",
              "name": "tokenId",
              "type": "uint256"
            },
            {
              "internalType": "address payable",
              "name": "seller",
              "type": "address"
            },
            {
              "internalType": "address payable",
              "name": "owner",
              "type": "address"
            },
            {
              "internalType": "uint256",
              "name": "price",
              "type": "uint256"
            },
            {
              "internalType": "bool",
              "name": "sold",
              "type": "bool"
            }
          ],
          "internalType": "struct NFTMarketplace.MarketItem[]",
          "name": "",
          "type": "tuple[]"
        }
      ],
      "stateMutability": "view",
      "type": "function"
    },
    {
      "inputs": [],
      "name": "fetchMyNft",
      "outputs": [
        {
          "components": [
            {
              "internalType": "uint256",
              "name": "tokenId",
              "type": "uint256"
            },
            {
              "internalType": "address payable",
              "name": "seller",
              "type": "address"
            },
            {
              "internalType": "address payable",
              "name": "owner",
              "type": "address"
            },
            {
              "internalType": "uint256",
              "name": "price",
              "type": "uint256"
            },
            {
              "internalType": "bool",
              "name": "sold",
              "type": "bool"
            }
          ],
          "internalType": "struct NFTMarketplace.MarketItem[]",
          "name": "",
          "type": "tuple[]"
        }
      ],
      "stateMutability": "view",
      "type": "function"
    },
    {
      "inputs": [
        {
          "internalType": "uint256",
          "name": "tokenId",
          "type": "uint256"
        }
      ],
      "name": "getApproved",
      "outputs": [
        {
          "internalType": "address",
          "name": "",
          "type": "address"
        }
      ],
      "stateMutability": "view",
      "type": "function"
    },
    {
      "inputs": [],
      "name": "getListingPrice",
      "outputs": [
        {
          "internalType": "uint256",
          "name": "",
          "type": "uint256"
        }
      ],
      "stateMutability": "view",
      "type": "function"
    },
    {
      "inputs": [
        {
          "internalType": "address",
          "name": "owner",
          "type": "address"
        },
        {
          "internalType": "address",
          "name": "operator",
          "type": "address"
        }
      ],
      "name": "isApprovedForAll",
      "outputs": [
        {
          "internalType": "bool",
          "name": "",
          "type": "bool"
        }
      ],
      "stateMutability": "view",
      "type": "function"
    },
    {
      "inputs": [],
      "name": "name",
      "outputs": [
        {
          "internalType": "string",
          "name": "",
          "type": "string"
        }
      ],
      "stateMutability": "view",
      "type": "function"
    },
    {
      "inputs": [
        {
          "internalType": "uint256",
          "name": "tokenId",
          "type": "uint256"
        }
      ],
      "name": "ownerOf",
      "outputs": [
        {
          "internalType": "address",
          "name": "",
          "type": "address"
        }
      ],
      "stateMutability": "view",
      "type": "function"
    },
    {
      "inputs": [
        {
          "internalType": "uint256",
          "name": "tokenId",
          "type": "uint256"
        },
        {
          "internalType": "uint256",
          "name": "price",
          "type": "uint256"
        }
      ],
      "name": "resaleNft",
      "outputs": [],
      "stateMutability": "payable",
      "type": "function"
    },
    {
      "inputs": [
        {
          "internalType": "address",
          "name": "from",
          "type": "address"
        },
        {
          "internalType": "address",
          "name": "to",
          "type": "address"
        },
        {
          "internalType": "uint256",
          "name": "tokenId",
          "type": "uint256"
        }
      ],
      "name": "safeTransferFrom",
      "outputs": [],
      "stateMutability": "nonpayable",
      "type": "function"
    },
    {
      "inputs": [
        {
          "internalType": "address",
          "name": "from",
          "type": "address"
        },
        {
          "internalType": "address",
          "name": "to",
          "type": "address"
        },
        {
          "internalType": "uint256",
          "name": "tokenId",
          "type": "uint256"
        },
        {
          "internalType": "bytes",
          "name": "data",
          "type": "bytes"
        }
      ],
      "name": "safeTransferFrom",
      "outputs": [],
      "stateMutability": "nonpayable",
      "type": "function"
    },
    {
      "inputs": [
        {
          "internalType": "address",
          "name": "operator",
          "type": "address"
        },
        {
          "internalType": "bool",
          "name": "approved",
          "type": "bool"
        }
      ],
      "name": "setApprovalForAll",
      "outputs": [],
      "stateMutability": "nonpayable",
      "type": "function"
    },
    {
      "inputs": [
        {
          "internalType": "bytes4",
          "name": "interfaceId",
          "type": "bytes4"
        }
      ],
      "name": "supportsInterface",
      "outputs": [
        {
          "internalType": "bool",
          "name": "",
          "type": "bool"
        }
      ],
      "stateMutability": "view",
      "type": "function"
    },
    {
      "inputs": [],
      "name": "symbol",
      "outputs": [
        {
          "internalType": "string",
          "name": "",
          "type": "string"
        }
      ],
      "stateMutability": "view",
      "type": "function"
    },
    {
      "inputs": [
        {
          "internalType": "uint256",
          "name": "tokenId",
          "type": "uint256"
        }
      ],
      "name": "tokenURI",
      "outputs": [
        {
          "internalType": "string",
          "name": "",
          "type": "string"
        }
      ],
      "stateMutability": "view",
      "type": "function"
    },
    {
      "inputs": [
        {
          "internalType": "address",
          "name": "from",
          "type": "address"
        },
        {
          "internalType": "address",
          "name": "to",
          "type": "address"
        },
        {
          "internalType": "uint256",
          "name": "tokenId",
          "type": "uint256"
        }
      ],
      "name": "transferFrom",
      "outputs": [],
      "stateMutability": "nonpayable",
      "type": "function"
    },
    {
      "inputs": [
        {
          "internalType": "uint256",
          "name": "_listingPrice",
          "type": "uint256"
        }
      ],
      "name": "updateListingPrice",
      "outputs": [],
      "stateMutability": "payable",
      "type": "function"
    }
  ],
  "bytecode": "0x60806040526605543df729c000600a553480156200001c57600080fd5b506040518060400160405280601381526020017f4e4654204d657461766172736520546f6b656e000000000000000000000000008152506040518060400160405280600581526020017f4d594e465400000000000000000000000000000000000000000000000000000081525081600090816200009a919062000370565b508060019081620000ac919062000370565b50505033600960006101000a81548173ffffffffffffffffffffffffffffffffffffffff021916908373ffffffffffffffffffffffffffffffffffffffff16021790555062000457565b600081519050919050565b7f4e487b7100000000000000000000000000000000000000000000000000000000600052604160045260246000fd5b7f4e487b7100000000000000000000000000000000000000000000000000000000600052602260045260246000fd5b600060028204905060018216806200017857607f821691505b6020821081036200018e576200018d62000130565b5b50919050565b60008190508160005260206000209050919050565b60006020601f8301049050919050565b600082821b905092915050565b600060088302620001f87fffffffffffffffffffffffffffffffffffffffffffffffffffffffffffffffff82620001b9565b620002048683620001b9565b95508019841693508086168417925050509392505050565b6000819050919050565b6000819050919050565b6000620002516200024b62000245846200021c565b62000226565b6200021c565b9050919050565b6000819050919050565b6200026d8362000230565b620002856200027c8262000258565b848454620001c6565b825550505050565b600090565b6200029c6200028d565b620002a981848462000262565b505050565b5b81811015620002d157620002c560008262000292565b600181019050620002af565b5050565b601f8211156200032057620002ea8162000194565b620002f584620001a9565b8101602085101562000305578190505b6200031d6200031485620001a9565b830182620002ae565b50505b505050565b600082821c905092915050565b6000620003456000198460080262000325565b1980831691505092915050565b600062000360838362000332565b9150826002028217905092915050565b6200037b82620000f6565b67ffffffffffffffff81111562000397576200039662000101565b5b620003a382546200015f565b620003b0828285620002d5565b600060209050601f831160018114620003e85760008415620003d3578287015190505b620003df858262000352565b8655506200044f565b601f198416620003f88662000194565b60005b828110156200042257848901518255600182019150602085019450602081019050620003fb565b868310156200044257848901516200043e601f89168262000332565b8355505b6001600288020188555050505b505050505050565b61431c80620004676000396000f3fe60806040526004361061012a5760003560e01c806372b3b620116100ab578063a22cb4651161006f578063a22cb465146103ec578063ae677aa314610415578063b88d4fde14610431578063be9af5361461045a578063c87b56dd14610476578063e985e9c5146104b35761012a565b806372b3b6201461031f5780637e4b61031461034f5780638fafd0211461036b57806395d89b41146103965780639f7699eb146103c15761012a565b806323b872dd116100f257806323b872dd1461022857806342842e0e1461025157806345f8fa801461027a5780636352211e146102a557806370a08231146102e25761012a565b806301ffc9a71461012f57806306fdde031461016c578063081812fc14610197578063095ea7b3146101d457806312e85585146101fd575b600080fd5b34801561013b57600080fd5b5061015660048036038101906101519190612b57565b6104f0565b6040516101639190612b9f565b60405180910390f35b34801561017857600080fd5b50610181610551565b60405161018e9190612c4a565b60405180910390f35b3480156101a357600080fd5b506101be60048036038101906101b99190612ca2565b6105e3565b6040516101cb9190612d10565b60405180910390f35b3480156101e057600080fd5b506101fb60048036038101906101f69190612d57565b610629565b005b34801561020957600080fd5b50610212610740565b60405161021f9190612da6565b60405180910390f35b34801561023457600080fd5b5061024f600480360381019061024a9190612dc1565b61074a565b005b34801561025d57600080fd5b5061027860048036038101906102739190612dc1565b6107aa565b005b34801561028657600080fd5b5061028f6107ca565b60405161029c9190612f6a565b60405180910390f35b3480156102b157600080fd5b506102cc60048036038101906102c79190612ca2565b610aa1565b6040516102d99190612d10565b60405180910390f35b3480156102ee57600080fd5b5061030960048036038101906103049190612f8c565b610b27565b6040516103169190612da6565b60405180910390f35b610339600480360381019061033491906130ee565b610bde565b6040516103469190612da6565b60405180910390f35b6103696004803603810190610364919061314a565b610c20565b005b34801561037757600080fd5b50610380610e15565b60405161038d9190612f6a565b60405180910390f35b3480156103a257600080fd5b506103ab61106e565b6040516103b89190612c4a565b60405180910390f35b3480156103cd57600080fd5b506103d6611100565b6040516103e39190612f6a565b60405180910390f35b3480156103f857600080fd5b50610413600480360381019061040e91906131b6565b6113d7565b005b61042f600480360381019061042a9190612ca2565b6113ed565b005b34801561043d57600080fd5b5061045860048036038101906104539190613297565b611487565b005b610474600480360381019061046f9190612ca2565b6114e9565b005b34801561048257600080fd5b5061049d60048036038101906104989190612ca2565b611721565b6040516104aa9190612c4a565b60405180910390f35b3480156104bf57600080fd5b506104da60048036038101906104d5919061331a565b611833565b6040516104e79190612b9f565b60405180910390f35b6000634906490660e01b7bffffffffffffffffffffffffffffffffffffffffffffffffffffffff1916827bffffffffffffffffffffffffffffffffffffffffffffffffffffffff1916148061054a5750610549826118c7565b5b9050919050565b60606000805461056090613389565b80601f016020809104026020016040519081016040528092919081815260200182805461058c90613389565b80156105d95780601f106105ae576101008083540402835291602001916105d9565b820191906000526020600020905b8154815290600101906020018083116105bc57829003601f168201915b5050505050905090565b60006105ee826119a9565b6004600083815260200190815260200160002060009054906101000a900473ffffffffffffffffffffffffffffffffffffffff169050919050565b600061063482610aa1565b90508073ffffffffffffffffffffffffffffffffffffffff168373ffffffffffffffffffffffffffffffffffffffff16036106a4576040517f08c379a000000000000000000000000000000000000000000000000000000000815260040161069b9061342c565b60405180910390fd5b8073ffffffffffffffffffffffffffffffffffffffff166106c36119f4565b73ffffffffffffffffffffffffffffffffffffffff1614806106f257506106f1816106ec6119f4565b611833565b5b610731576040517f08c379a0000000000000000000000000000000000000000000000000000000008152600401610728906134be565b60405180910390fd5b61073b83836119fc565b505050565b6000600a54905090565b61075b6107556119f4565b82611ab5565b61079a576040517f08c379a000000000000000000000000000000000000000000000000000000000815260040161079190613550565b60405180910390fd5b6107a5838383611b4a565b505050565b6107c583838360405180602001604052806000815250611487565b505050565b606060006107d86007611e43565b905060008060005b83811015610880573373ffffffffffffffffffffffffffffffffffffffff16600b6000600184610810919061359f565b815260200190815260200160002060010160009054906101000a900473ffffffffffffffffffffffffffffffffffffffff1673ffffffffffffffffffffffffffffffffffffffff160361086d5760018261086a919061359f565b91505b8080610878906135d3565b9150506107e0565b5060008167ffffffffffffffff81111561089d5761089c612fc3565b5b6040519080825280602002602001820160405280156108d657816020015b6108c3612a8e565b8152602001906001900390816108bb5790505b50905060005b84811015610a96573373ffffffffffffffffffffffffffffffffffffffff16600b600060018461090c919061359f565b815260200190815260200160002060010160009054906101000a900473ffffffffffffffffffffffffffffffffffffffff1673ffffffffffffffffffffffffffffffffffffffff1603610a83576000600b600060018461096c919061359f565b81526020019081526020016000206040518060a0016040529081600082015481526020016001820160009054906101000a900473ffffffffffffffffffffffffffffffffffffffff1673ffffffffffffffffffffffffffffffffffffffff1673ffffffffffffffffffffffffffffffffffffffff1681526020016002820160009054906101000a900473ffffffffffffffffffffffffffffffffffffffff1673ffffffffffffffffffffffffffffffffffffffff1673ffffffffffffffffffffffffffffffffffffffff168152602001600382015481526020016004820160009054906101000a900460ff161515151581525050905080838681518110610a7657610a7561361b565b5b6020026020010181905250505b8080610a8e906135d3565b9150506108dc565b508094505050505090565b600080610aad83611e51565b9050600073ffffffffffffffffffffffffffffffffffffffff168173ffffffffffffffffffffffffffffffffffffffff1603610b1e576040517f08c379a0000000000000000000000000000000000000000000000000000000008152600401610b1590613696565b60405180910390fd5b80915050919050565b60008073ffffffffffffffffffffffffffffffffffffffff168273ffffffffffffffffffffffffffffffffffffffff1603610b97576040517f08c379a0000000000000000000000000000000000000000000000000000000008152600401610b8e90613728565b60405180910390fd5b600360008373ffffffffffffffffffffffffffffffffffffffff1673ffffffffffffffffffffffffffffffffffffffff168152602001908152602001600020549050919050565b6000610bea6007611e8e565b6000610bf66007611e43565b9050610c023382611ea4565b610c0c81856120c1565b610c168184612165565b8091505092915050565b3373ffffffffffffffffffffffffffffffffffffffff16600b600084815260200190815260200160002060020160009054906101000a900473ffffffffffffffffffffffffffffffffffffffff1673ffffffffffffffffffffffffffffffffffffffff1614610cc4576040517f08c379a0000000000000000000000000000000000000000000000000000000008152600401610cbb90613794565b60405180910390fd5b600a543414610d08576040517f08c379a0000000000000000000000000000000000000000000000000000000008152600401610cff90613826565b60405180910390fd5b6000600b600084815260200190815260200160002060040160006101000a81548160ff02191690831515021790555080600b60008481526020019081526020016000206003018190555033600b600084815260200190815260200160002060010160006101000a81548173ffffffffffffffffffffffffffffffffffffffff021916908373ffffffffffffffffffffffffffffffffffffffff16021790555030600b600084815260200190815260200160002060020160006101000a81548173ffffffffffffffffffffffffffffffffffffffff021916908373ffffffffffffffffffffffffffffffffffffffff160217905550610e066008612369565b610e11333084611b4a565b5050565b60606000610e236007611e43565b90506000610e316008611e43565b610e3b6007611e43565b610e459190613846565b90506000808267ffffffffffffffff811115610e6457610e63612fc3565b5b604051908082528060200260200182016040528015610e9d57816020015b610e8a612a8e565b815260200190600190039081610e825790505b50905060005b84811015611063573073ffffffffffffffffffffffffffffffffffffffff16600b6000600184610ed3919061359f565b815260200190815260200160002060020160009054906101000a900473ffffffffffffffffffffffffffffffffffffffff1673ffffffffffffffffffffffffffffffffffffffff1603611050576000600182610f2f919061359f565b90506000600b60008381526020019081526020016000206040518060a0016040529081600082015481526020016001820160009054906101000a900473ffffffffffffffffffffffffffffffffffffffff1673ffffffffffffffffffffffffffffffffffffffff1673ffffffffffffffffffffffffffffffffffffffff1681526020016002820160009054906101000a900473ffffffffffffffffffffffffffffffffffffffff1673ffffffffffffffffffffffffffffffffffffffff1673ffffffffffffffffffffffffffffffffffffffff168152602001600382015481526020016004820160009054906101000a900460ff1615151515815250509050808486815181106110425761104161361b565b5b602002602001018190525050505b808061105b906135d3565b915050610ea3565b508094505050505090565b60606001805461107d90613389565b80601f01602080910402602001604051908101604052809291908181526020018280546110a990613389565b80156110f65780601f106110cb576101008083540402835291602001916110f6565b820191906000526020600020905b8154815290600101906020018083116110d957829003601f168201915b5050505050905090565b6060600061110e6007611e43565b905060008060005b838110156111b6573373ffffffffffffffffffffffffffffffffffffffff16600b6000600184611146919061359f565b815260200190815260200160002060020160009054906101000a900473ffffffffffffffffffffffffffffffffffffffff1673ffffffffffffffffffffffffffffffffffffffff16036111a3576001826111a0919061359f565b91505b80806111ae906135d3565b915050611116565b5060008167ffffffffffffffff8111156111d3576111d2612fc3565b5b60405190808252806020026020018201604052801561120c57816020015b6111f9612a8e565b8152602001906001900390816111f15790505b50905060005b848110156113cc573373ffffffffffffffffffffffffffffffffffffffff16600b6000600184611242919061359f565b815260200190815260200160002060020160009054906101000a900473ffffffffffffffffffffffffffffffffffffffff1673ffffffffffffffffffffffffffffffffffffffff16036113b9576000600b60006001846112a2919061359f565b81526020019081526020016000206040518060a0016040529081600082015481526020016001820160009054906101000a900473ffffffffffffffffffffffffffffffffffffffff1673ffffffffffffffffffffffffffffffffffffffff1673ffffffffffffffffffffffffffffffffffffffff1681526020016002820160009054906101000a900473ffffffffffffffffffffffffffffffffffffffff1673ffffffffffffffffffffffffffffffffffffffff1673ffffffffffffffffffffffffffffffffffffffff168152602001600382015481526020016004820160009054906101000a900460ff1615151515815250509050808386815181106113ac576113ab61361b565b5b6020026020010181905250505b80806113c4906135d3565b915050611212565b508094505050505090565b6113e96113e26119f4565b83836123c5565b5050565b600960009054906101000a900473ffffffffffffffffffffffffffffffffffffffff1673ffffffffffffffffffffffffffffffffffffffff163373ffffffffffffffffffffffffffffffffffffffff161461147d576040517f08c379a0000000000000000000000000000000000000000000000000000000008152600401611474906138ec565b60405180910390fd5b80600a8190555050565b6114986114926119f4565b83611ab5565b6114d7576040517f08c379a00000000000000000000000000000000000000000000000000000000081526004016114ce90613550565b60405180910390fd5b6114e384848484612531565b50505050565b6000600b6000838152602001908152602001600020600301549050803414611546576040517f08c379a000000000000000000000000000000000000000000000000000000000815260040161153d9061397e565b60405180910390fd5b33600b600084815260200190815260200160002060020160006101000a81548173ffffffffffffffffffffffffffffffffffffffff021916908373ffffffffffffffffffffffffffffffffffffffff1602179055506001600b600084815260200190815260200160002060040160006101000a81548160ff0219169083151502179055506000600b600084815260200190815260200160002060020160006101000a81548173ffffffffffffffffffffffffffffffffffffffff021916908373ffffffffffffffffffffffffffffffffffffffff16021790555061162a6008611e8e565b611635303384611b4a565b600960009054906101000a900473ffffffffffffffffffffffffffffffffffffffff1673ffffffffffffffffffffffffffffffffffffffff166108fc600a549081150290604051600060405180830381858888f1935050505015801561169f573d6000803e3d6000fd5b50600b600083815260200190815260200160002060010160009054906101000a900473ffffffffffffffffffffffffffffffffffffffff1673ffffffffffffffffffffffffffffffffffffffff166108fc349081150290604051600060405180830381858888f1935050505015801561171c573d6000803e3d6000fd5b505050565b606061172c826119a9565b600060066000848152602001908152602001600020805461174c90613389565b80601f016020809104026020016040519081016040528092919081815260200182805461177890613389565b80156117c55780601f1061179a576101008083540402835291602001916117c5565b820191906000526020600020905b8154815290600101906020018083116117a857829003601f168201915b5050505050905060006117d661258d565b905060008151036117eb57819250505061182e565b6000825111156118205780826040516020016118089291906139da565b6040516020818303038152906040529250505061182e565b611829846125a4565b925050505b919050565b6000600560008473ffffffffffffffffffffffffffffffffffffffff1673ffffffffffffffffffffffffffffffffffffffff16815260200190815260200160002060008373ffffffffffffffffffffffffffffffffffffffff1673ffffffffffffffffffffffffffffffffffffffff16815260200190815260200160002060009054906101000a900460ff16905092915050565b60007f80ac58cd000000000000000000000000000000000000000000000000000000007bffffffffffffffffffffffffffffffffffffffffffffffffffffffff1916827bffffffffffffffffffffffffffffffffffffffffffffffffffffffff1916148061199257507f5b5e139f000000000000000000000000000000000000000000000000000000007bffffffffffffffffffffffffffffffffffffffffffffffffffffffff1916827bffffffffffffffffffffffffffffffffffffffffffffffffffffffff1916145b806119a257506119a18261260c565b5b9050919050565b6119b281612676565b6119f1576040517f08c379a00000000000000000000000000000000000000000000000000000000081526004016119e890613696565b60405180910390fd5b50565b600033905090565b816004600083815260200190815260200160002060006101000a81548173ffffffffffffffffffffffffffffffffffffffff021916908373ffffffffffffffffffffffffffffffffffffffff160217905550808273ffffffffffffffffffffffffffffffffffffffff16611a6f83610aa1565b73ffffffffffffffffffffffffffffffffffffffff167f8c5be1e5ebec7d5bd14f71427d1e84f3dd0314c0f7b2291e5b200ac8c7c3b92560405160405180910390a45050565b600080611ac183610aa1565b90508073ffffffffffffffffffffffffffffffffffffffff168473ffffffffffffffffffffffffffffffffffffffff161480611b035750611b028185611833565b5b80611b4157508373ffffffffffffffffffffffffffffffffffffffff16611b29846105e3565b73ffffffffffffffffffffffffffffffffffffffff16145b91505092915050565b8273ffffffffffffffffffffffffffffffffffffffff16611b6a82610aa1565b73ffffffffffffffffffffffffffffffffffffffff1614611bc0576040517f08c379a0000000000000000000000000000000000000000000000000000000008152600401611bb790613a70565b60405180910390fd5b600073ffffffffffffffffffffffffffffffffffffffff168273ffffffffffffffffffffffffffffffffffffffff1603611c2f576040517f08c379a0000000000000000000000000000000000000000000000000000000008152600401611c2690613b02565b60405180910390fd5b611c3c83838360016126b7565b8273ffffffffffffffffffffffffffffffffffffffff16611c5c82610aa1565b73ffffffffffffffffffffffffffffffffffffffff1614611cb2576040517f08c379a0000000000000000000000000000000000000000000000000000000008152600401611ca990613a70565b60405180910390fd5b6004600082815260200190815260200160002060006101000a81549073ffffffffffffffffffffffffffffffffffffffff02191690556001600360008573ffffffffffffffffffffffffffffffffffffffff1673ffffffffffffffffffffffffffffffffffffffff168152602001908152602001600020600082825403925050819055506001600360008473ffffffffffffffffffffffffffffffffffffffff1673ffffffffffffffffffffffffffffffffffffffff16815260200190815260200160002060008282540192505081905550816002600083815260200190815260200160002060006101000a81548173ffffffffffffffffffffffffffffffffffffffff021916908373ffffffffffffffffffffffffffffffffffffffff160217905550808273ffffffffffffffffffffffffffffffffffffffff168473ffffffffffffffffffffffffffffffffffffffff167fddf252ad1be2c89b69c2b068fc378daa952ba7f163c4a11628f55a4df523b3ef60405160405180910390a4611e3e83838360016126bd565b505050565b600081600001549050919050565b60006002600083815260200190815260200160002060009054906101000a900473ffffffffffffffffffffffffffffffffffffffff169050919050565b6001816000016000828254019250508190555050565b600073ffffffffffffffffffffffffffffffffffffffff168273ffffffffffffffffffffffffffffffffffffffff1603611f13576040517f08c379a0000000000000000000000000000000000000000000000000000000008152600401611f0a90613b6e565b60405180910390fd5b611f1c81612676565b15611f5c576040517f08c379a0000000000000000000000000000000000000000000000000000000008152600401611f5390613bda565b60405180910390fd5b611f6a6000838360016126b7565b611f7381612676565b15611fb3576040517f08c379a0000000000000000000000000000000000000000000000000000000008152600401611faa90613bda565b60405180910390fd5b6001600360008473ffffffffffffffffffffffffffffffffffffffff1673ffffffffffffffffffffffffffffffffffffffff16815260200190815260200160002060008282540192505081905550816002600083815260200190815260200160002060006101000a81548173ffffffffffffffffffffffffffffffffffffffff021916908373ffffffffffffffffffffffffffffffffffffffff160217905550808273ffffffffffffffffffffffffffffffffffffffff16600073ffffffffffffffffffffffffffffffffffffffff167fddf252ad1be2c89b69c2b068fc378daa952ba7f163c4a11628f55a4df523b3ef60405160405180910390a46120bd6000838360016126bd565b5050565b6120ca82612676565b612109576040517f08c379a000000000000000000000000000000000000000000000000000000000815260040161210090613c6c565b60405180910390fd5b806006600084815260200190815260200160002090816121299190613e38565b507ff8e1a15aba9398e019f0b49df1a4fde98ee17ae345cb5f6b5e2c27f5033e8ce7826040516121599190612da6565b60405180910390a15050565b600081116121a8576040517f08c379a000000000000000000000000000000000000000000000000000000000815260040161219f90613f56565b60405180910390fd5b600a5434146121ec576040517f08c379a00000000000000000000000000000000000000000000000000000000081526004016121e390613fe8565b60405180910390fd5b6040518060a001604052808381526020013373ffffffffffffffffffffffffffffffffffffffff1681526020013073ffffffffffffffffffffffffffffffffffffffff16815260200182815260200160001515815250600b60008481526020019081526020016000206000820151816000015560208201518160010160006101000a81548173ffffffffffffffffffffffffffffffffffffffff021916908373ffffffffffffffffffffffffffffffffffffffff16021790555060408201518160020160006101000a81548173ffffffffffffffffffffffffffffffffffffffff021916908373ffffffffffffffffffffffffffffffffffffffff1602179055506060820151816003015560808201518160040160006101000a81548160ff021916908315150217905550905050612325333084611b4a565b7fdebdb32cb5230ab727c9c361b16fdb2015df225c10e6a3e7f60ecd5dc5be451682333084600060405161235d959493929190614017565b60405180910390a15050565b600081600001549050600081116123b5576040517f08c379a00000000000000000000000000000000000000000000000000000000081526004016123ac906140b6565b60405180910390fd5b6001810382600001819055505050565b8173ffffffffffffffffffffffffffffffffffffffff168373ffffffffffffffffffffffffffffffffffffffff1603612433576040517f08c379a000000000000000000000000000000000000000000000000000000000815260040161242a90614122565b60405180910390fd5b80600560008573ffffffffffffffffffffffffffffffffffffffff1673ffffffffffffffffffffffffffffffffffffffff16815260200190815260200160002060008473ffffffffffffffffffffffffffffffffffffffff1673ffffffffffffffffffffffffffffffffffffffff16815260200190815260200160002060006101000a81548160ff0219169083151502179055508173ffffffffffffffffffffffffffffffffffffffff168373ffffffffffffffffffffffffffffffffffffffff167f17307eab39ab6107e8899845ad3d59bd9653f200f220920489ca2b5937696c31836040516125249190612b9f565b60405180910390a3505050565b61253c848484611b4a565b612548848484846126c3565b612587576040517f08c379a000000000000000000000000000000000000000000000000000000000815260040161257e906141b4565b60405180910390fd5b50505050565b606060405180602001604052806000815250905090565b60606125af826119a9565b60006125b961258d565b905060008151116125d95760405180602001604052806000815250612604565b806125e38461284a565b6040516020016125f49291906139da565b6040516020818303038152906040525b915050919050565b60007f01ffc9a7000000000000000000000000000000000000000000000000000000007bffffffffffffffffffffffffffffffffffffffffffffffffffffffff1916827bffffffffffffffffffffffffffffffffffffffffffffffffffffffff1916149050919050565b60008073ffffffffffffffffffffffffffffffffffffffff1661269883611e51565b73ffffffffffffffffffffffffffffffffffffffff1614159050919050565b50505050565b50505050565b60006126e48473ffffffffffffffffffffffffffffffffffffffff16612918565b1561283d578373ffffffffffffffffffffffffffffffffffffffff1663150b7a0261270d6119f4565b8786866040518563ffffffff1660e01b815260040161272f9493929190614229565b6020604051808303816000875af192505050801561276b57506040513d601f19601f82011682018060405250810190612768919061428a565b60015b6127ed573d806000811461279b576040519150601f19603f3d011682016040523d82523d6000602084013e6127a0565b606091505b5060008151036127e5576040517f08c379a00000000000000000000000000000000000000000000000000000000081526004016127dc906141b4565b60405180910390fd5b805181602001fd5b63150b7a0260e01b7bffffffffffffffffffffffffffffffffffffffffffffffffffffffff1916817bffffffffffffffffffffffffffffffffffffffffffffffffffffffff191614915050612842565b600190505b949350505050565b6060600060016128598461293b565b01905060008167ffffffffffffffff81111561287857612877612fc3565b5b6040519080825280601f01601f1916602001820160405280156128aa5781602001600182028036833780820191505090505b509050600082602001820190505b60011561290d578080600190039150507f3031323334353637383961626364656600000000000000000000000000000000600a86061a8153600a8581612901576129006142b7565b5b049450600085036128b8575b819350505050919050565b6000808273ffffffffffffffffffffffffffffffffffffffff163b119050919050565b600080600090507a184f03e93ff9f4daa797ed6e38ed64bf6a1f0100000000000000008310612999577a184f03e93ff9f4daa797ed6e38ed64bf6a1f010000000000000000838161298f5761298e6142b7565b5b0492506040810190505b6d04ee2d6d415b85acef810000000083106129d6576d04ee2d6d415b85acef810000000083816129cc576129cb6142b7565b5b0492506020810190505b662386f26fc100008310612a0557662386f26fc1000083816129fb576129fa6142b7565b5b0492506010810190505b6305f5e1008310612a2e576305f5e1008381612a2457612a236142b7565b5b0492506008810190505b6127108310612a53576127108381612a4957612a486142b7565b5b0492506004810190505b60648310612a765760648381612a6c57612a6b6142b7565b5b0492506002810190505b600a8310612a85576001810190505b80915050919050565b6040518060a0016040528060008152602001600073ffffffffffffffffffffffffffffffffffffffff168152602001600073ffffffffffffffffffffffffffffffffffffffff168152602001600081526020016000151581525090565b6000604051905090565b600080fd5b600080fd5b60007fffffffff0000000000000000000000000000000000000000000000000000000082169050919050565b612b3481612aff565b8114612b3f57600080fd5b50565b600081359050612b5181612b2b565b92915050565b600060208284031215612b6d57612b6c612af5565b5b6000612b7b84828501612b42565b91505092915050565b60008115159050919050565b612b9981612b84565b82525050565b6000602082019050612bb46000830184612b90565b92915050565b600081519050919050565b600082825260208201905092915050565b60005b83811015612bf4578082015181840152602081019050612bd9565b60008484015250505050565b6000601f19601f8301169050919050565b6000612c1c82612bba565b612c268185612bc5565b9350612c36818560208601612bd6565b612c3f81612c00565b840191505092915050565b60006020820190508181036000830152612c648184612c11565b905092915050565b6000819050919050565b612c7f81612c6c565b8114612c8a57600080fd5b50565b600081359050612c9c81612c76565b92915050565b600060208284031215612cb857612cb7612af5565b5b6000612cc684828501612c8d565b91505092915050565b600073ffffffffffffffffffffffffffffffffffffffff82169050919050565b6000612cfa82612ccf565b9050919050565b612d0a81612cef565b82525050565b6000602082019050612d256000830184612d01565b92915050565b612d3481612cef565b8114612d3f57600080fd5b50565b600081359050612d5181612d2b565b92915050565b60008060408385031215612d6e57612d6d612af5565b5b6000612d7c85828601612d42565b9250506020612d8d85828601612c8d565b9150509250929050565b612da081612c6c565b82525050565b6000602082019050612dbb6000830184612d97565b92915050565b600080600060608486031215612dda57612dd9612af5565b5b6000612de886828701612d42565b9350506020612df986828701612d42565b9250506040612e0a86828701612c8d565b9150509250925092565b600081519050919050565b600082825260208201905092915050565b6000819050602082019050919050565b612e4981612c6c565b82525050565b6000612e5a82612ccf565b9050919050565b612e6a81612e4f565b82525050565b612e7981612b84565b82525050565b60a082016000820151612e956000850182612e40565b506020820151612ea86020850182612e61565b506040820151612ebb6040850182612e61565b506060820151612ece6060850182612e40565b506080820151612ee16080850182612e70565b50505050565b6000612ef38383612e7f565b60a08301905092915050565b6000602082019050919050565b6000612f1782612e14565b612f218185612e1f565b9350612f2c83612e30565b8060005b83811015612f5d578151612f448882612ee7565b9750612f4f83612eff565b925050600181019050612f30565b5085935050505092915050565b60006020820190508181036000830152612f848184612f0c565b905092915050565b600060208284031215612fa257612fa1612af5565b5b6000612fb084828501612d42565b91505092915050565b600080fd5b600080fd5b7f4e487b7100000000000000000000000000000000000000000000000000000000600052604160045260246000fd5b612ffb82612c00565b810181811067ffffffffffffffff8211171561301a57613019612fc3565b5b80604052505050565b600061302d612aeb565b90506130398282612ff2565b919050565b600067ffffffffffffffff82111561305957613058612fc3565b5b61306282612c00565b9050602081019050919050565b82818337600083830152505050565b600061309161308c8461303e565b613023565b9050828152602081018484840111156130ad576130ac612fbe565b5b6130b884828561306f565b509392505050565b600082601f8301126130d5576130d4612fb9565b5b81356130e584826020860161307e565b91505092915050565b6000806040838503121561310557613104612af5565b5b600083013567ffffffffffffffff81111561312357613122612afa565b5b61312f858286016130c0565b925050602061314085828601612c8d565b9150509250929050565b6000806040838503121561316157613160612af5565b5b600061316f85828601612c8d565b925050602061318085828601612c8d565b9150509250929050565b61319381612b84565b811461319e57600080fd5b50565b6000813590506131b08161318a565b92915050565b600080604083850312156131cd576131cc612af5565b5b60006131db85828601612d42565b92505060206131ec858286016131a1565b9150509250929050565b600067ffffffffffffffff82111561321157613210612fc3565b5b61321a82612c00565b9050602081019050919050565b600061323a613235846131f6565b613023565b90508281526020810184848401111561325657613255612fbe565b5b61326184828561306f565b509392505050565b600082601f83011261327e5761327d612fb9565b5b813561328e848260208601613227565b91505092915050565b600080600080608085870312156132b1576132b0612af5565b5b60006132bf87828801612d42565b94505060206132d087828801612d42565b93505060406132e187828801612c8d565b925050606085013567ffffffffffffffff81111561330257613301612afa565b5b61330e87828801613269565b91505092959194509250565b6000806040838503121561333157613330612af5565b5b600061333f85828601612d42565b925050602061335085828601612d42565b9150509250929050565b7f4e487b7100000000000000000000000000000000000000000000000000000000600052602260045260246000fd5b600060028204905060018216806133a157607f821691505b6020821081036133b4576133b361335a565b5b50919050565b7f4552433732313a20617070726f76616c20746f2063757272656e74206f776e6560008201527f7200000000000000000000000000000000000000000000000000000000000000602082015250565b6000613416602183612bc5565b9150613421826133ba565b604082019050919050565b6000602082019050818103600083015261344581613409565b9050919050565b7f4552433732313a20617070726f76652063616c6c6572206973206e6f7420746f60008201527f6b656e206f776e6572206f7220617070726f76656420666f7220616c6c000000602082015250565b60006134a8603d83612bc5565b91506134b38261344c565b604082019050919050565b600060208201905081810360008301526134d78161349b565b9050919050565b7f4552433732313a2063616c6c6572206973206e6f7420746f6b656e206f776e6560008201527f72206f7220617070726f76656400000000000000000000000000000000000000602082015250565b600061353a602d83612bc5565b9150613545826134de565b604082019050919050565b600060208201905081810360008301526135698161352d565b9050919050565b7f4e487b7100000000000000000000000000000000000000000000000000000000600052601160045260246000fd5b60006135aa82612c6c565b91506135b583612c6c565b92508282019050808211156135cd576135cc613570565b5b92915050565b60006135de82612c6c565b91507fffffffffffffffffffffffffffffffffffffffffffffffffffffffffffffffff82036136105761360f613570565b5b600182019050919050565b7f4e487b7100000000000000000000000000000000000000000000000000000000600052603260045260246000fd5b7f4552433732313a20696e76616c696420746f6b656e2049440000000000000000600082015250565b6000613680601883612bc5565b915061368b8261364a565b602082019050919050565b600060208201905081810360008301526136af81613673565b9050919050565b7f4552433732313a2061646472657373207a65726f206973206e6f74206120766160008201527f6c6964206f776e65720000000000000000000000000000000000000000000000602082015250565b6000613712602983612bc5565b915061371d826136b6565b604082019050919050565b6000602082019050818103600083015261374181613705565b9050919050565b7f4f6e6c79206f776e6572206f66206e66742063616e207265736c652069740000600082015250565b600061377e601e83612bc5565b915061378982613748565b602082019050919050565b600060208201905081810360008301526137ad81613771565b9050919050565b7f5072696365206d73757420626520657175616c20746f206c697374696e67207060008201527f7269636500000000000000000000000000000000000000000000000000000000602082015250565b6000613810602483612bc5565b915061381b826137b4565b604082019050919050565b6000602082019050818103600083015261383f81613803565b9050919050565b600061385182612c6c565b915061385c83612c6c565b925082820390508181111561387457613873613570565b5b92915050565b7f6f6e6c79206f776e6572206f66206e66744d61726b6574506c6163652063616e60008201527f2075706461746520746865206c697374696e6720707269636500000000000000602082015250565b60006138d6603983612bc5565b91506138e18261387a565b604082019050919050565b60006020820190508181036000830152613905816138c9565b9050919050565b7f506c65617365207375626d6974207468652061736b696e67206d6f6e6579207460008201527f6f20636f6d706c65746520746865207075726368617365000000000000000000602082015250565b6000613968603783612bc5565b91506139738261390c565b604082019050919050565b600060208201905081810360008301526139978161395b565b9050919050565b600081905092915050565b60006139b482612bba565b6139be818561399e565b93506139ce818560208601612bd6565b80840191505092915050565b60006139e682856139a9565b91506139f282846139a9565b91508190509392505050565b7f4552433732313a207472616e736665722066726f6d20696e636f72726563742060008201527f6f776e6572000000000000000000000000000000000000000000000000000000602082015250565b6000613a5a602583612bc5565b9150613a65826139fe565b604082019050919050565b60006020820190508181036000830152613a8981613a4d565b9050919050565b7f4552433732313a207472616e7366657220746f20746865207a65726f2061646460008201527f7265737300000000000000000000000000000000000000000000000000000000602082015250565b6000613aec602483612bc5565b9150613af782613a90565b604082019050919050565b60006020820190508181036000830152613b1b81613adf565b9050919050565b7f4552433732313a206d696e7420746f20746865207a65726f2061646472657373600082015250565b6000613b58602083612bc5565b9150613b6382613b22565b602082019050919050565b60006020820190508181036000830152613b8781613b4b565b9050919050565b7f4552433732313a20746f6b656e20616c7265616479206d696e74656400000000600082015250565b6000613bc4601c83612bc5565b9150613bcf82613b8e565b602082019050919050565b60006020820190508181036000830152613bf381613bb7565b9050919050565b7f45524337323155524953746f726167653a2055524920736574206f66206e6f6e60008201527f6578697374656e7420746f6b656e000000000000000000000000000000000000602082015250565b6000613c56602e83612bc5565b9150613c6182613bfa565b604082019050919050565b60006020820190508181036000830152613c8581613c49565b9050919050565b60008190508160005260206000209050919050565b60006020601f8301049050919050565b600082821b905092915050565b600060088302613cee7fffffffffffffffffffffffffffffffffffffffffffffffffffffffffffffffff82613cb1565b613cf88683613cb1565b95508019841693508086168417925050509392505050565b6000819050919050565b6000613d35613d30613d2b84612c6c565b613d10565b612c6c565b9050919050565b6000819050919050565b613d4f83613d1a565b613d63613d5b82613d3c565b848454613cbe565b825550505050565b600090565b613d78613d6b565b613d83818484613d46565b505050565b5b81811015613da757613d9c600082613d70565b600181019050613d89565b5050565b601f821115613dec57613dbd81613c8c565b613dc684613ca1565b81016020851015613dd5578190505b613de9613de185613ca1565b830182613d88565b50505b505050565b600082821c905092915050565b6000613e0f60001984600802613df1565b1980831691505092915050565b6000613e288383613dfe565b9150826002028217905092915050565b613e4182612bba565b67ffffffffffffffff811115613e5a57613e59612fc3565b5b613e648254613389565b613e6f828285613dab565b600060209050601f831160018114613ea25760008415613e90578287015190505b613e9a8582613e1c565b865550613f02565b601f198416613eb086613c8c565b60005b82811015613ed857848901518255600182019150602085019450602081019050613eb3565b86831015613ef55784890151613ef1601f891682613dfe565b8355505b6001600288020188555050505b505050505050565b7f5072696365206d7573742062652061746c65617374206f6e6500000000000000600082015250565b6000613f40601983612bc5565b9150613f4b82613f0a565b602082019050919050565b60006020820190508181036000830152613f6f81613f33565b9050919050565b7f5072696365206d75737420626520657175616c20746f206c697374696e67207060008201527f7269636500000000000000000000000000000000000000000000000000000000602082015250565b6000613fd2602483612bc5565b9150613fdd82613f76565b604082019050919050565b6000602082019050818103600083015261400181613fc5565b9050919050565b61401181612e4f565b82525050565b600060a08201905061402c6000830188612d97565b6140396020830187614008565b6140466040830186614008565b6140536060830185612d97565b6140606080830184612b90565b9695505050505050565b7f436f756e7465723a2064656372656d656e74206f766572666c6f770000000000600082015250565b60006140a0601b83612bc5565b91506140ab8261406a565b602082019050919050565b600060208201905081810360008301526140cf81614093565b9050919050565b7f4552433732313a20617070726f766520746f2063616c6c657200000000000000600082015250565b600061410c601983612bc5565b9150614117826140d6565b602082019050919050565b6000602082019050818103600083015261413b816140ff565b9050919050565b7f4552433732313a207472616e7366657220746f206e6f6e20455243373231526560008201527f63656976657220696d706c656d656e7465720000000000000000000000000000602082015250565b600061419e603283612bc5565b91506141a982614142565b604082019050919050565b600060208201905081810360008301526141cd81614191565b9050919050565b600081519050919050565b600082825260208201905092915050565b60006141fb826141d4565b61420581856141df565b9350614215818560208601612bd6565b61421e81612c00565b840191505092915050565b600060808201905061423e6000830187612d01565b61424b6020830186612d01565b6142586040830185612d97565b818103606083015261426a81846141f0565b905095945050505050565b60008151905061428481612b2b565b92915050565b6000602082840312156142a05761429f612af5565b5b60006142ae84828501614275565b91505092915050565b7f4e487b7100000000000000000000000000000000000000000000000000000000600052601260045260246000fdfea2646970667358221220d403906e58b31b6add9f40e2c1be03bc0b7a200cd09677eca9c190cc3d9e866064736f6c63430008120033",
  "linkReferences": {},
  "deployedLinkReferences": {}
}