{
  "_format": "hh-sol-artifact-1",
  "contractName": "NFTMarketplace",
  "sourceName": "contracts/NftMarketplace.sol",
  "abi": [
    {
      "inputs": [],
      "stateMutability": "nonpayable",
      "type": "constructor"
    },
    {
      "anonymous": false,
      "inputs": [
        {
          "indexed": true,
          "internalType": "address",
          "name": "owner",
          "type": "address"
        },
        {
          "indexed": true,
          "internalType": "address",
          "name": "approved",
          "type": "address"
        },
        {
          "indexed": true,
          "internalType": "uint256",
          "name": "tokenId",
          "type": "uint256"
        }
      ],
      "name": "Approval",
      "type": "event"
    },
    {
      "anonymous": false,
      "inputs": [
        {
          "indexed": true,
          "internalType": "address",
          "name": "owner",
          "type": "address"
        },
        {
          "indexed": true,
          "internalType": "address",
          "name": "operator",
          "type": "address"
        },
        {
          "indexed": false,
          "internalType": "bool",
          "name": "approved",
          "type": "bool"
        }
      ],
      "name": "ApprovalForAll",
      "type": "event"
    },
    {
      "anonymous": false,
      "inputs": [
        {
          "indexed": true,
          "internalType": "address",
          "name": "from",
          "type": "address"
        },
        {
          "indexed": true,
          "internalType": "address",
          "name": "to",
          "type": "address"
        },
        {
          "indexed": true,
          "internalType": "uint256",
          "name": "tokenId",
          "type": "uint256"
        }
      ],
      "name": "Transfer",
      "type": "event"
    },
    {
      "anonymous": false,
      "inputs": [
        {
          "indexed": false,
          "internalType": "uint256",
          "name": "indexedtokenId",
          "type": "uint256"
        },
        {
          "indexed": false,
          "internalType": "address payable",
          "name": "seller",
          "type": "address"
        },
        {
          "indexed": false,
          "internalType": "address payable",
          "name": "owner",
          "type": "address"
        },
        {
          "indexed": false,
          "internalType": "uint256",
          "name": "price",
          "type": "uint256"
        },
        {
          "indexed": false,
          "internalType": "bool",
          "name": "sold",
          "type": "bool"
        }
      ],
      "name": "idMarketItemCreated",
      "type": "event"
    },
    {
      "inputs": [
        {
          "internalType": "address",
          "name": "to",
          "type": "address"
        },
        {
          "internalType": "uint256",
          "name": "tokenId",
          "type": "uint256"
        }
      ],
      "name": "approve",
      "outputs": [],
      "stateMutability": "nonpayable",
      "type": "function"
    },
    {
      "inputs": [
        {
          "internalType": "address",
          "name": "owner",
          "type": "address"
        }
      ],
      "name": "balanceOf",
      "outputs": [
        {
          "internalType": "uint256",
          "name": "",
          "type": "uint256"
        }
      ],
      "stateMutability": "view",
      "type": "function"
    },
    {
      "inputs": [
        {
          "internalType": "uint256",
          "name": "tokenId",
          "type": "uint256"
        }
      ],
      "name": "createMarketSale",
      "outputs": [],
      "stateMutability": "payable",
      "type": "function"
    },
    {
      "inputs": [
        {
          "internalType": "string",
          "name": "tokenURI",
          "type": "string"
        },
        {
          "internalType": "uint256",
          "name": "price",
          "type": "uint256"
        }
      ],
      "name": "createToken",
      "outputs": [
        {
          "internalType": "uint256",
          "name": "",
          "type": "uint256"
        }
      ],
      "stateMutability": "payable",
      "type": "function"
    },
    {
      "inputs": [],
      "name": "fetchItemsListed",
      "outputs": [
        {
          "components": [
            {
              "internalType": "uint256",
              "name": "tokenId",
              "type": "uint256"
            },
            {
              "internalType": "address payable",
              "name": "seller",
              "type": "address"
            },
            {
              "internalType": "address payable",
              "name": "owner",
              "type": "address"
            },
            {
              "internalType": "uint256",
              "name": "price",
              "type": "uint256"
            },
            {
              "internalType": "bool",
              "name": "sold",
              "type": "bool"
            }
          ],
          "internalType": "struct NFTMarketplace.MarketItem[]",
          "name": "",
          "type": "tuple[]"
        }
      ],
      "stateMutability": "view",
      "type": "function"
    },
    {
      "inputs": [],
      "name": "fetchMarketItem",
      "outputs": [
        {
          "components": [
            {
              "internalType": "uint256",
              "name": "tokenId",
              "type": "uint256"
            },
            {
              "internalType": "address payable",
              "name": "seller",
              "type": "address"
            },
            {
              "internalType": "address payable",
              "name": "owner",
              "type": "address"
            },
            {
              "internalType": "uint256",
              "name": "price",
              "type": "uint256"
            },
            {
              "internalType": "bool",
              "name": "sold",
              "type": "bool"
            }
          ],
          "internalType": "struct NFTMarketplace.MarketItem[]",
          "name": "",
          "type": "tuple[]"
        }
      ],
      "stateMutability": "view",
      "type": "function"
    },
    {
      "inputs": [],
      "name": "fetchMyNft",
      "outputs": [
        {
          "components": [
            {
              "internalType": "uint256",
              "name": "tokenId",
              "type": "uint256"
            },
            {
              "internalType": "address payable",
              "name": "seller",
              "type": "address"
            },
            {
              "internalType": "address payable",
              "name": "owner",
              "type": "address"
            },
            {
              "internalType": "uint256",
              "name": "price",
              "type": "uint256"
            },
            {
              "internalType": "bool",
              "name": "sold",
              "type": "bool"
            }
          ],
          "internalType": "struct NFTMarketplace.MarketItem[]",
          "name": "",
          "type": "tuple[]"
        }
      ],
      "stateMutability": "view",
      "type": "function"
    },
    {
      "inputs": [
        {
          "internalType": "uint256",
          "name": "tokenId",
          "type": "uint256"
        }
      ],
      "name": "getApproved",
      "outputs": [
        {
          "internalType": "address",
          "name": "",
          "type": "address"
        }
      ],
      "stateMutability": "view",
      "type": "function"
    },
    {
      "inputs": [],
      "name": "getListingPrice",
      "outputs": [
        {
          "internalType": "uint256",
          "name": "",
          "type": "uint256"
        }
      ],
      "stateMutability": "view",
      "type": "function"
    },
    {
      "inputs": [
        {
          "internalType": "address",
          "name": "owner",
          "type": "address"
        },
        {
          "internalType": "address",
          "name": "operator",
          "type": "address"
        }
      ],
      "name": "isApprovedForAll",
      "outputs": [
        {
          "internalType": "bool",
          "name": "",
          "type": "bool"
        }
      ],
      "stateMutability": "view",
      "type": "function"
    },
    {
      "inputs": [],
      "name": "name",
      "outputs": [
        {
          "internalType": "string",
          "name": "",
          "type": "string"
        }
      ],
      "stateMutability": "view",
      "type": "function"
    },
    {
      "inputs": [
        {
          "internalType": "uint256",
          "name": "tokenId",
          "type": "uint256"
        }
      ],
      "name": "ownerOf",
      "outputs": [
        {
          "internalType": "address",
          "name": "",
          "type": "address"
        }
      ],
      "stateMutability": "view",
      "type": "function"
    },
    {
      "inputs": [
        {
          "internalType": "uint256",
          "name": "tokenId",
          "type": "uint256"
        },
        {
          "internalType": "uint256",
          "name": "price",
          "type": "uint256"
        }
      ],
      "name": "resaleNft",
      "outputs": [],
      "stateMutability": "payable",
      "type": "function"
    },
    {
      "inputs": [
        {
          "internalType": "address",
          "name": "from",
          "type": "address"
        },
        {
          "internalType": "address",
          "name": "to",
          "type": "address"
        },
        {
          "internalType": "uint256",
          "name": "tokenId",
          "type": "uint256"
        }
      ],
      "name": "safeTransferFrom",
      "outputs": [],
      "stateMutability": "nonpayable",
      "type": "function"
    },
    {
      "inputs": [
        {
          "internalType": "address",
          "name": "from",
          "type": "address"
        },
        {
          "internalType": "address",
          "name": "to",
          "type": "address"
        },
        {
          "internalType": "uint256",
          "name": "tokenId",
          "type": "uint256"
        },
        {
          "internalType": "bytes",
          "name": "data",
          "type": "bytes"
        }
      ],
      "name": "safeTransferFrom",
      "outputs": [],
      "stateMutability": "nonpayable",
      "type": "function"
    },
    {
      "inputs": [
        {
          "internalType": "address",
          "name": "operator",
          "type": "address"
        },
        {
          "internalType": "bool",
          "name": "approved",
          "type": "bool"
        }
      ],
      "name": "setApprovalForAll",
      "outputs": [],
      "stateMutability": "nonpayable",
      "type": "function"
    },
    {
      "inputs": [
        {
          "internalType": "bytes4",
          "name": "interfaceId",
          "type": "bytes4"
        }
      ],
      "name": "supportsInterface",
      "outputs": [
        {
          "internalType": "bool",
          "name": "",
          "type": "bool"
        }
      ],
      "stateMutability": "view",
      "type": "function"
    },
    {
      "inputs": [],
      "name": "symbol",
      "outputs": [
        {
          "internalType": "string",
          "name": "",
          "type": "string"
        }
      ],
      "stateMutability": "view",
      "type": "function"
    },
    {
      "inputs": [
        {
          "internalType": "uint256",
          "name": "tokenId",
          "type": "uint256"
        }
      ],
      "name": "tokenURI",
      "outputs": [
        {
          "internalType": "string",
          "name": "",
          "type": "string"
        }
      ],
      "stateMutability": "view",
      "type": "function"
    },
    {
      "inputs": [
        {
          "internalType": "address",
          "name": "from",
          "type": "address"
        },
        {
          "internalType": "address",
          "name": "to",
          "type": "address"
        },
        {
          "internalType": "uint256",
          "name": "tokenId",
          "type": "uint256"
        }
      ],
      "name": "transferFrom",
      "outputs": [],
      "stateMutability": "nonpayable",
      "type": "function"
    },
    {
      "inputs": [
        {
          "internalType": "uint256",
          "name": "_listingPrice",
          "type": "uint256"
        }
      ],
      "name": "updateListingPrice",
      "outputs": [],
      "stateMutability": "payable",
      "type": "function"
    }
  ],
  "bytecode": "0x60806040526605543df729c000600a553480156200001c57600080fd5b506040518060400160405280601381526020017f4e4654204d657461766172736520546f6b656e000000000000000000000000008152506040518060400160405280600581526020017f4d594e465400000000000000000000000000000000000000000000000000000081525081600090816200009a919062000370565b508060019081620000ac919062000370565b50505033600960006101000a81548173ffffffffffffffffffffffffffffffffffffffff021916908373ffffffffffffffffffffffffffffffffffffffff16021790555062000457565b600081519050919050565b7f4e487b7100000000000000000000000000000000000000000000000000000000600052604160045260246000fd5b7f4e487b7100000000000000000000000000000000000000000000000000000000600052602260045260246000fd5b600060028204905060018216806200017857607f821691505b6020821081036200018e576200018d62000130565b5b50919050565b60008190508160005260206000209050919050565b60006020601f8301049050919050565b600082821b905092915050565b600060088302620001f87fffffffffffffffffffffffffffffffffffffffffffffffffffffffffffffffff82620001b9565b620002048683620001b9565b95508019841693508086168417925050509392505050565b6000819050919050565b6000819050919050565b6000620002516200024b62000245846200021c565b62000226565b6200021c565b9050919050565b6000819050919050565b6200026d8362000230565b620002856200027c8262000258565b848454620001c6565b825550505050565b600090565b6200029c6200028d565b620002a981848462000262565b505050565b5b81811015620002d157620002c560008262000292565b600181019050620002af565b5050565b601f8211156200032057620002ea8162000194565b620002f584620001a9565b8101602085101562000305578190505b6200031d6200031485620001a9565b830182620002ae565b50505b505050565b600082821c905092915050565b6000620003456000198460080262000325565b1980831691505092915050565b600062000360838362000332565b9150826002028217905092915050565b6200037b82620000f6565b67ffffffffffffffff81111562000397576200039662000101565b5b620003a382546200015f565b620003b0828285620002d5565b600060209050601f831160018114620003e85760008415620003d3578287015190505b620003df858262000352565b8655506200044f565b601f198416620003f88662000194565b60005b828110156200042257848901518255600182019150602085019450602081019050620003fb565b868310156200044257848901516200043e601f89168262000332565b8355505b6001600288020188555050505b505050505050565b61416580620004676000396000f3fe60806040526004361061012a5760003560e01c806372b3b620116100ab578063a22cb4651161006f578063a22cb465146103ec578063ae677aa314610415578063b88d4fde14610431578063be9af5361461045a578063c87b56dd14610476578063e985e9c5146104b35761012a565b806372b3b6201461031f5780637e4b61031461034f5780638fafd0211461036b57806395d89b41146103965780639f7699eb146103c15761012a565b806323b872dd116100f257806323b872dd1461022857806342842e0e1461025157806345f8fa801461027a5780636352211e146102a557806370a08231146102e25761012a565b806301ffc9a71461012f57806306fdde031461016c578063081812fc14610197578063095ea7b3146101d457806312e85585146101fd575b600080fd5b34801561013b57600080fd5b506101566004803603810190610151919061293e565b6104f0565b6040516101639190612986565b60405180910390f35b34801561017857600080fd5b506101816105d2565b60405161018e9190612a31565b60405180910390f35b3480156101a357600080fd5b506101be60048036038101906101b99190612a89565b610664565b6040516101cb9190612af7565b60405180910390f35b3480156101e057600080fd5b506101fb60048036038101906101f69190612b3e565b6106aa565b005b34801561020957600080fd5b506102126107c1565b60405161021f9190612b8d565b60405180910390f35b34801561023457600080fd5b5061024f600480360381019061024a9190612ba8565b6107cb565b005b34801561025d57600080fd5b5061027860048036038101906102739190612ba8565b61082b565b005b34801561028657600080fd5b5061028f61084b565b60405161029c9190612d51565b60405180910390f35b3480156102b157600080fd5b506102cc60048036038101906102c79190612a89565b610b22565b6040516102d99190612af7565b60405180910390f35b3480156102ee57600080fd5b5061030960048036038101906103049190612d73565b610bd3565b6040516103169190612b8d565b60405180910390f35b61033960048036038101906103349190612ed5565b610c8a565b6040516103469190612b8d565b60405180910390f35b61036960048036038101906103649190612f31565b610ccc565b005b34801561037757600080fd5b50610380610ec1565b60405161038d9190612d51565b60405180910390f35b3480156103a257600080fd5b506103ab61111a565b6040516103b89190612a31565b60405180910390f35b3480156103cd57600080fd5b506103d66111ac565b6040516103e39190612d51565b60405180910390f35b3480156103f857600080fd5b50610413600480360381019061040e9190612f9d565b611483565b005b61042f600480360381019061042a9190612a89565b611499565b005b34801561043d57600080fd5b506104586004803603810190610453919061307e565b611533565b005b610474600480360381019061046f9190612a89565b611595565b005b34801561048257600080fd5b5061049d60048036038101906104989190612a89565b6117cd565b6040516104aa9190612a31565b60405180910390f35b3480156104bf57600080fd5b506104da60048036038101906104d59190613101565b6118df565b6040516104e79190612986565b60405180910390f35b60007f80ac58cd000000000000000000000000000000000000000000000000000000007bffffffffffffffffffffffffffffffffffffffffffffffffffffffff1916827bffffffffffffffffffffffffffffffffffffffffffffffffffffffff191614806105bb57507f5b5e139f000000000000000000000000000000000000000000000000000000007bffffffffffffffffffffffffffffffffffffffffffffffffffffffff1916827bffffffffffffffffffffffffffffffffffffffffffffffffffffffff1916145b806105cb57506105ca82611973565b5b9050919050565b6060600080546105e190613170565b80601f016020809104026020016040519081016040528092919081815260200182805461060d90613170565b801561065a5780601f1061062f5761010080835404028352916020019161065a565b820191906000526020600020905b81548152906001019060200180831161063d57829003601f168201915b5050505050905090565b600061066f826119dd565b6004600083815260200190815260200160002060009054906101000a900473ffffffffffffffffffffffffffffffffffffffff169050919050565b60006106b582610b22565b90508073ffffffffffffffffffffffffffffffffffffffff168373ffffffffffffffffffffffffffffffffffffffff1603610725576040517f08c379a000000000000000000000000000000000000000000000000000000000815260040161071c90613213565b60405180910390fd5b8073ffffffffffffffffffffffffffffffffffffffff16610744611a28565b73ffffffffffffffffffffffffffffffffffffffff16148061077357506107728161076d611a28565b6118df565b5b6107b2576040517f08c379a00000000000000000000000000000000000000000000000000000000081526004016107a9906132a5565b60405180910390fd5b6107bc8383611a30565b505050565b6000600a54905090565b6107dc6107d6611a28565b82611ae9565b61081b576040517f08c379a000000000000000000000000000000000000000000000000000000000815260040161081290613337565b60405180910390fd5b610826838383611b7e565b505050565b61084683838360405180602001604052806000815250611533565b505050565b606060006108596007611de4565b905060008060005b83811015610901573373ffffffffffffffffffffffffffffffffffffffff16600b60006001846108919190613386565b815260200190815260200160002060010160009054906101000a900473ffffffffffffffffffffffffffffffffffffffff1673ffffffffffffffffffffffffffffffffffffffff16036108ee576001826108eb9190613386565b91505b80806108f9906133ba565b915050610861565b5060008167ffffffffffffffff81111561091e5761091d612daa565b5b60405190808252806020026020018201604052801561095757816020015b610944612875565b81526020019060019003908161093c5790505b50905060005b84811015610b17573373ffffffffffffffffffffffffffffffffffffffff16600b600060018461098d9190613386565b815260200190815260200160002060010160009054906101000a900473ffffffffffffffffffffffffffffffffffffffff1673ffffffffffffffffffffffffffffffffffffffff1603610b04576000600b60006001846109ed9190613386565b81526020019081526020016000206040518060a0016040529081600082015481526020016001820160009054906101000a900473ffffffffffffffffffffffffffffffffffffffff1673ffffffffffffffffffffffffffffffffffffffff1673ffffffffffffffffffffffffffffffffffffffff1681526020016002820160009054906101000a900473ffffffffffffffffffffffffffffffffffffffff1673ffffffffffffffffffffffffffffffffffffffff1673ffffffffffffffffffffffffffffffffffffffff168152602001600382015481526020016004820160009054906101000a900460ff161515151581525050905080838681518110610af757610af6613402565b5b6020026020010181905250505b8080610b0f906133ba565b91505061095d565b508094505050505090565b6000806002600084815260200190815260200160002060009054906101000a900473ffffffffffffffffffffffffffffffffffffffff169050600073ffffffffffffffffffffffffffffffffffffffff168173ffffffffffffffffffffffffffffffffffffffff1603610bca576040517f08c379a0000000000000000000000000000000000000000000000000000000008152600401610bc19061347d565b60405180910390fd5b80915050919050565b60008073ffffffffffffffffffffffffffffffffffffffff168273ffffffffffffffffffffffffffffffffffffffff1603610c43576040517f08c379a0000000000000000000000000000000000000000000000000000000008152600401610c3a9061350f565b60405180910390fd5b600360008373ffffffffffffffffffffffffffffffffffffffff1673ffffffffffffffffffffffffffffffffffffffff168152602001908152602001600020549050919050565b6000610c966007611df2565b6000610ca26007611de4565b9050610cae3382611e08565b610cb88185611fe1565b610cc2818461204e565b8091505092915050565b3373ffffffffffffffffffffffffffffffffffffffff16600b600084815260200190815260200160002060020160009054906101000a900473ffffffffffffffffffffffffffffffffffffffff1673ffffffffffffffffffffffffffffffffffffffff1614610d70576040517f08c379a0000000000000000000000000000000000000000000000000000000008152600401610d679061357b565b60405180910390fd5b600a543414610db4576040517f08c379a0000000000000000000000000000000000000000000000000000000008152600401610dab9061360d565b60405180910390fd5b6000600b600084815260200190815260200160002060040160006101000a81548160ff02191690831515021790555080600b60008481526020019081526020016000206003018190555033600b600084815260200190815260200160002060010160006101000a81548173ffffffffffffffffffffffffffffffffffffffff021916908373ffffffffffffffffffffffffffffffffffffffff16021790555030600b600084815260200190815260200160002060020160006101000a81548173ffffffffffffffffffffffffffffffffffffffff021916908373ffffffffffffffffffffffffffffffffffffffff160217905550610eb26008612252565b610ebd333084611b7e565b5050565b60606000610ecf6007611de4565b90506000610edd6008611de4565b610ee76007611de4565b610ef1919061362d565b90506000808267ffffffffffffffff811115610f1057610f0f612daa565b5b604051908082528060200260200182016040528015610f4957816020015b610f36612875565b815260200190600190039081610f2e5790505b50905060005b8481101561110f573073ffffffffffffffffffffffffffffffffffffffff16600b6000600184610f7f9190613386565b815260200190815260200160002060020160009054906101000a900473ffffffffffffffffffffffffffffffffffffffff1673ffffffffffffffffffffffffffffffffffffffff16036110fc576000600182610fdb9190613386565b90506000600b60008381526020019081526020016000206040518060a0016040529081600082015481526020016001820160009054906101000a900473ffffffffffffffffffffffffffffffffffffffff1673ffffffffffffffffffffffffffffffffffffffff1673ffffffffffffffffffffffffffffffffffffffff1681526020016002820160009054906101000a900473ffffffffffffffffffffffffffffffffffffffff1673ffffffffffffffffffffffffffffffffffffffff1673ffffffffffffffffffffffffffffffffffffffff168152602001600382015481526020016004820160009054906101000a900460ff1615151515815250509050808486815181106110ee576110ed613402565b5b602002602001018190525050505b8080611107906133ba565b915050610f4f565b508094505050505090565b60606001805461112990613170565b80601f016020809104026020016040519081016040528092919081815260200182805461115590613170565b80156111a25780601f10611177576101008083540402835291602001916111a2565b820191906000526020600020905b81548152906001019060200180831161118557829003601f168201915b5050505050905090565b606060006111ba6007611de4565b905060008060005b83811015611262573373ffffffffffffffffffffffffffffffffffffffff16600b60006001846111f29190613386565b815260200190815260200160002060020160009054906101000a900473ffffffffffffffffffffffffffffffffffffffff1673ffffffffffffffffffffffffffffffffffffffff160361124f5760018261124c9190613386565b91505b808061125a906133ba565b9150506111c2565b5060008167ffffffffffffffff81111561127f5761127e612daa565b5b6040519080825280602002602001820160405280156112b857816020015b6112a5612875565b81526020019060019003908161129d5790505b50905060005b84811015611478573373ffffffffffffffffffffffffffffffffffffffff16600b60006001846112ee9190613386565b815260200190815260200160002060020160009054906101000a900473ffffffffffffffffffffffffffffffffffffffff1673ffffffffffffffffffffffffffffffffffffffff1603611465576000600b600060018461134e9190613386565b81526020019081526020016000206040518060a0016040529081600082015481526020016001820160009054906101000a900473ffffffffffffffffffffffffffffffffffffffff1673ffffffffffffffffffffffffffffffffffffffff1673ffffffffffffffffffffffffffffffffffffffff1681526020016002820160009054906101000a900473ffffffffffffffffffffffffffffffffffffffff1673ffffffffffffffffffffffffffffffffffffffff1673ffffffffffffffffffffffffffffffffffffffff168152602001600382015481526020016004820160009054906101000a900460ff16151515158152505090508083868151811061145857611457613402565b5b6020026020010181905250505b8080611470906133ba565b9150506112be565b508094505050505090565b61149561148e611a28565b83836122ae565b5050565b600960009054906101000a900473ffffffffffffffffffffffffffffffffffffffff1673ffffffffffffffffffffffffffffffffffffffff163373ffffffffffffffffffffffffffffffffffffffff1614611529576040517f08c379a0000000000000000000000000000000000000000000000000000000008152600401611520906136d3565b60405180910390fd5b80600a8190555050565b61154461153e611a28565b83611ae9565b611583576040517f08c379a000000000000000000000000000000000000000000000000000000000815260040161157a90613337565b60405180910390fd5b61158f8484848461241a565b50505050565b6000600b60008381526020019081526020016000206003015490508034146115f2576040517f08c379a00000000000000000000000000000000000000000000000000000000081526004016115e990613765565b60405180910390fd5b33600b600084815260200190815260200160002060020160006101000a81548173ffffffffffffffffffffffffffffffffffffffff021916908373ffffffffffffffffffffffffffffffffffffffff1602179055506001600b600084815260200190815260200160002060040160006101000a81548160ff0219169083151502179055506000600b600084815260200190815260200160002060020160006101000a81548173ffffffffffffffffffffffffffffffffffffffff021916908373ffffffffffffffffffffffffffffffffffffffff1602179055506116d66008611df2565b6116e1303384611b7e565b600960009054906101000a900473ffffffffffffffffffffffffffffffffffffffff1673ffffffffffffffffffffffffffffffffffffffff166108fc600a549081150290604051600060405180830381858888f1935050505015801561174b573d6000803e3d6000fd5b50600b600083815260200190815260200160002060010160009054906101000a900473ffffffffffffffffffffffffffffffffffffffff1673ffffffffffffffffffffffffffffffffffffffff166108fc349081150290604051600060405180830381858888f193505050501580156117c8573d6000803e3d6000fd5b505050565b60606117d8826119dd565b60006006600084815260200190815260200160002080546117f890613170565b80601f016020809104026020016040519081016040528092919081815260200182805461182490613170565b80156118715780601f1061184657610100808354040283529160200191611871565b820191906000526020600020905b81548152906001019060200180831161185457829003601f168201915b505050505090506000611882612476565b905060008151036118975781925050506118da565b6000825111156118cc5780826040516020016118b49291906137c1565b604051602081830303815290604052925050506118da565b6118d58461248d565b925050505b919050565b6000600560008473ffffffffffffffffffffffffffffffffffffffff1673ffffffffffffffffffffffffffffffffffffffff16815260200190815260200160002060008373ffffffffffffffffffffffffffffffffffffffff1673ffffffffffffffffffffffffffffffffffffffff16815260200190815260200160002060009054906101000a900460ff16905092915050565b60007f01ffc9a7000000000000000000000000000000000000000000000000000000007bffffffffffffffffffffffffffffffffffffffffffffffffffffffff1916827bffffffffffffffffffffffffffffffffffffffffffffffffffffffff1916149050919050565b6119e6816124f5565b611a25576040517f08c379a0000000000000000000000000000000000000000000000000000000008152600401611a1c9061347d565b60405180910390fd5b50565b600033905090565b816004600083815260200190815260200160002060006101000a81548173ffffffffffffffffffffffffffffffffffffffff021916908373ffffffffffffffffffffffffffffffffffffffff160217905550808273ffffffffffffffffffffffffffffffffffffffff16611aa383610b22565b73ffffffffffffffffffffffffffffffffffffffff167f8c5be1e5ebec7d5bd14f71427d1e84f3dd0314c0f7b2291e5b200ac8c7c3b92560405160405180910390a45050565b600080611af583610b22565b90508073ffffffffffffffffffffffffffffffffffffffff168473ffffffffffffffffffffffffffffffffffffffff161480611b375750611b3681856118df565b5b80611b7557508373ffffffffffffffffffffffffffffffffffffffff16611b5d84610664565b73ffffffffffffffffffffffffffffffffffffffff16145b91505092915050565b8273ffffffffffffffffffffffffffffffffffffffff16611b9e82610b22565b73ffffffffffffffffffffffffffffffffffffffff1614611bf4576040517f08c379a0000000000000000000000000000000000000000000000000000000008152600401611beb90613857565b60405180910390fd5b600073ffffffffffffffffffffffffffffffffffffffff168273ffffffffffffffffffffffffffffffffffffffff1603611c63576040517f08c379a0000000000000000000000000000000000000000000000000000000008152600401611c5a906138e9565b60405180910390fd5b611c6e838383612561565b611c79600082611a30565b6001600360008573ffffffffffffffffffffffffffffffffffffffff1673ffffffffffffffffffffffffffffffffffffffff1681526020019081526020016000206000828254611cc9919061362d565b925050819055506001600360008473ffffffffffffffffffffffffffffffffffffffff1673ffffffffffffffffffffffffffffffffffffffff1681526020019081526020016000206000828254611d209190613386565b92505081905550816002600083815260200190815260200160002060006101000a81548173ffffffffffffffffffffffffffffffffffffffff021916908373ffffffffffffffffffffffffffffffffffffffff160217905550808273ffffffffffffffffffffffffffffffffffffffff168473ffffffffffffffffffffffffffffffffffffffff167fddf252ad1be2c89b69c2b068fc378daa952ba7f163c4a11628f55a4df523b3ef60405160405180910390a4611ddf838383612566565b505050565b600081600001549050919050565b6001816000016000828254019250508190555050565b600073ffffffffffffffffffffffffffffffffffffffff168273ffffffffffffffffffffffffffffffffffffffff1603611e77576040517f08c379a0000000000000000000000000000000000000000000000000000000008152600401611e6e90613955565b60405180910390fd5b611e80816124f5565b15611ec0576040517f08c379a0000000000000000000000000000000000000000000000000000000008152600401611eb7906139c1565b60405180910390fd5b611ecc60008383612561565b6001600360008473ffffffffffffffffffffffffffffffffffffffff1673ffffffffffffffffffffffffffffffffffffffff1681526020019081526020016000206000828254611f1c9190613386565b92505081905550816002600083815260200190815260200160002060006101000a81548173ffffffffffffffffffffffffffffffffffffffff021916908373ffffffffffffffffffffffffffffffffffffffff160217905550808273ffffffffffffffffffffffffffffffffffffffff16600073ffffffffffffffffffffffffffffffffffffffff167fddf252ad1be2c89b69c2b068fc378daa952ba7f163c4a11628f55a4df523b3ef60405160405180910390a4611fdd60008383612566565b5050565b611fea826124f5565b612029576040517f08c379a000000000000000000000000000000000000000000000000000000000815260040161202090613a53565b60405180910390fd5b806006600084815260200190815260200160002090816120499190613c1f565b505050565b60008111612091576040517f08c379a000000000000000000000000000000000000000000000000000000000815260040161208890613d3d565b60405180910390fd5b600a5434146120d5576040517f08c379a00000000000000000000000000000000000000000000000000000000081526004016120cc90613dcf565b60405180910390fd5b6040518060a001604052808381526020013373ffffffffffffffffffffffffffffffffffffffff1681526020013073ffffffffffffffffffffffffffffffffffffffff16815260200182815260200160001515815250600b60008481526020019081526020016000206000820151816000015560208201518160010160006101000a81548173ffffffffffffffffffffffffffffffffffffffff021916908373ffffffffffffffffffffffffffffffffffffffff16021790555060408201518160020160006101000a81548173ffffffffffffffffffffffffffffffffffffffff021916908373ffffffffffffffffffffffffffffffffffffffff1602179055506060820151816003015560808201518160040160006101000a81548160ff02191690831515021790555090505061220e333084611b7e565b7fdebdb32cb5230ab727c9c361b16fdb2015df225c10e6a3e7f60ecd5dc5be4516823330846000604051612246959493929190613dfe565b60405180910390a15050565b6000816000015490506000811161229e576040517f08c379a000000000000000000000000000000000000000000000000000000000815260040161229590613e9d565b60405180910390fd5b6001810382600001819055505050565b8173ffffffffffffffffffffffffffffffffffffffff168373ffffffffffffffffffffffffffffffffffffffff160361231c576040517f08c379a000000000000000000000000000000000000000000000000000000000815260040161231390613f09565b60405180910390fd5b80600560008573ffffffffffffffffffffffffffffffffffffffff1673ffffffffffffffffffffffffffffffffffffffff16815260200190815260200160002060008473ffffffffffffffffffffffffffffffffffffffff1673ffffffffffffffffffffffffffffffffffffffff16815260200190815260200160002060006101000a81548160ff0219169083151502179055508173ffffffffffffffffffffffffffffffffffffffff168373ffffffffffffffffffffffffffffffffffffffff167f17307eab39ab6107e8899845ad3d59bd9653f200f220920489ca2b5937696c318360405161240d9190612986565b60405180910390a3505050565b612425848484611b7e565b6124318484848461256b565b612470576040517f08c379a000000000000000000000000000000000000000000000000000000000815260040161246790613f9b565b60405180910390fd5b50505050565b606060405180602001604052806000815250905090565b6060612498826119dd565b60006124a2612476565b905060008151116124c257604051806020016040528060008152506124ed565b806124cc846126f2565b6040516020016124dd9291906137c1565b6040516020818303038152906040525b915050919050565b60008073ffffffffffffffffffffffffffffffffffffffff166002600084815260200190815260200160002060009054906101000a900473ffffffffffffffffffffffffffffffffffffffff1673ffffffffffffffffffffffffffffffffffffffff1614159050919050565b505050565b505050565b600061258c8473ffffffffffffffffffffffffffffffffffffffff16612852565b156126e5578373ffffffffffffffffffffffffffffffffffffffff1663150b7a026125b5611a28565b8786866040518563ffffffff1660e01b81526004016125d79493929190614010565b6020604051808303816000875af192505050801561261357506040513d601f19601f820116820180604052508101906126109190614071565b60015b612695573d8060008114612643576040519150601f19603f3d011682016040523d82523d6000602084013e612648565b606091505b50600081510361268d576040517f08c379a000000000000000000000000000000000000000000000000000000000815260040161268490613f9b565b60405180910390fd5b805181602001fd5b63150b7a0260e01b7bffffffffffffffffffffffffffffffffffffffffffffffffffffffff1916817bffffffffffffffffffffffffffffffffffffffffffffffffffffffff1916149150506126ea565b600190505b949350505050565b606060008203612739576040518060400160405280600181526020017f3000000000000000000000000000000000000000000000000000000000000000815250905061284d565b600082905060005b6000821461276b578080612754906133ba565b915050600a8261276491906140cd565b9150612741565b60008167ffffffffffffffff81111561278757612786612daa565b5b6040519080825280601f01601f1916602001820160405280156127b95781602001600182028036833780820191505090505b5090505b60008514612846576001826127d2919061362d565b9150600a856127e191906140fe565b60306127ed9190613386565b60f81b81838151811061280357612802613402565b5b60200101907effffffffffffffffffffffffffffffffffffffffffffffffffffffffffffff1916908160001a905350600a8561283f91906140cd565b94506127bd565b8093505050505b919050565b6000808273ffffffffffffffffffffffffffffffffffffffff163b119050919050565b6040518060a0016040528060008152602001600073ffffffffffffffffffffffffffffffffffffffff168152602001600073ffffffffffffffffffffffffffffffffffffffff168152602001600081526020016000151581525090565b6000604051905090565b600080fd5b600080fd5b60007fffffffff0000000000000000000000000000000000000000000000000000000082169050919050565b61291b816128e6565b811461292657600080fd5b50565b60008135905061293881612912565b92915050565b600060208284031215612954576129536128dc565b5b600061296284828501612929565b91505092915050565b60008115159050919050565b6129808161296b565b82525050565b600060208201905061299b6000830184612977565b92915050565b600081519050919050565b600082825260208201905092915050565b60005b838110156129db5780820151818401526020810190506129c0565b60008484015250505050565b6000601f19601f8301169050919050565b6000612a03826129a1565b612a0d81856129ac565b9350612a1d8185602086016129bd565b612a26816129e7565b840191505092915050565b60006020820190508181036000830152612a4b81846129f8565b905092915050565b6000819050919050565b612a6681612a53565b8114612a7157600080fd5b50565b600081359050612a8381612a5d565b92915050565b600060208284031215612a9f57612a9e6128dc565b5b6000612aad84828501612a74565b91505092915050565b600073ffffffffffffffffffffffffffffffffffffffff82169050919050565b6000612ae182612ab6565b9050919050565b612af181612ad6565b82525050565b6000602082019050612b0c6000830184612ae8565b92915050565b612b1b81612ad6565b8114612b2657600080fd5b50565b600081359050612b3881612b12565b92915050565b60008060408385031215612b5557612b546128dc565b5b6000612b6385828601612b29565b9250506020612b7485828601612a74565b9150509250929050565b612b8781612a53565b82525050565b6000602082019050612ba26000830184612b7e565b92915050565b600080600060608486031215612bc157612bc06128dc565b5b6000612bcf86828701612b29565b9350506020612be086828701612b29565b9250506040612bf186828701612a74565b9150509250925092565b600081519050919050565b600082825260208201905092915050565b6000819050602082019050919050565b612c3081612a53565b82525050565b6000612c4182612ab6565b9050919050565b612c5181612c36565b82525050565b612c608161296b565b82525050565b60a082016000820151612c7c6000850182612c27565b506020820151612c8f6020850182612c48565b506040820151612ca26040850182612c48565b506060820151612cb56060850182612c27565b506080820151612cc86080850182612c57565b50505050565b6000612cda8383612c66565b60a08301905092915050565b6000602082019050919050565b6000612cfe82612bfb565b612d088185612c06565b9350612d1383612c17565b8060005b83811015612d44578151612d2b8882612cce565b9750612d3683612ce6565b925050600181019050612d17565b5085935050505092915050565b60006020820190508181036000830152612d6b8184612cf3565b905092915050565b600060208284031215612d8957612d886128dc565b5b6000612d9784828501612b29565b91505092915050565b600080fd5b600080fd5b7f4e487b7100000000000000000000000000000000000000000000000000000000600052604160045260246000fd5b612de2826129e7565b810181811067ffffffffffffffff82111715612e0157612e00612daa565b5b80604052505050565b6000612e146128d2565b9050612e208282612dd9565b919050565b600067ffffffffffffffff821115612e4057612e3f612daa565b5b612e49826129e7565b9050602081019050919050565b82818337600083830152505050565b6000612e78612e7384612e25565b612e0a565b905082815260208101848484011115612e9457612e93612da5565b5b612e9f848285612e56565b509392505050565b600082601f830112612ebc57612ebb612da0565b5b8135612ecc848260208601612e65565b91505092915050565b60008060408385031215612eec57612eeb6128dc565b5b600083013567ffffffffffffffff811115612f0a57612f096128e1565b5b612f1685828601612ea7565b9250506020612f2785828601612a74565b9150509250929050565b60008060408385031215612f4857612f476128dc565b5b6000612f5685828601612a74565b9250506020612f6785828601612a74565b9150509250929050565b612f7a8161296b565b8114612f8557600080fd5b50565b600081359050612f9781612f71565b92915050565b60008060408385031215612fb457612fb36128dc565b5b6000612fc285828601612b29565b9250506020612fd385828601612f88565b9150509250929050565b600067ffffffffffffffff821115612ff857612ff7612daa565b5b613001826129e7565b9050602081019050919050565b600061302161301c84612fdd565b612e0a565b90508281526020810184848401111561303d5761303c612da5565b5b613048848285612e56565b509392505050565b600082601f83011261306557613064612da0565b5b813561307584826020860161300e565b91505092915050565b60008060008060808587031215613098576130976128dc565b5b60006130a687828801612b29565b94505060206130b787828801612b29565b93505060406130c887828801612a74565b925050606085013567ffffffffffffffff8111156130e9576130e86128e1565b5b6130f587828801613050565b91505092959194509250565b60008060408385031215613118576131176128dc565b5b600061312685828601612b29565b925050602061313785828601612b29565b9150509250929050565b7f4e487b7100000000000000000000000000000000000000000000000000000000600052602260045260246000fd5b6000600282049050600182168061318857607f821691505b60208210810361319b5761319a613141565b5b50919050565b7f4552433732313a20617070726f76616c20746f2063757272656e74206f776e6560008201527f7200000000000000000000000000000000000000000000000000000000000000602082015250565b60006131fd6021836129ac565b9150613208826131a1565b604082019050919050565b6000602082019050818103600083015261322c816131f0565b9050919050565b7f4552433732313a20617070726f76652063616c6c6572206973206e6f7420746f60008201527f6b656e206f776e6572206e6f7220617070726f76656420666f7220616c6c0000602082015250565b600061328f603e836129ac565b915061329a82613233565b604082019050919050565b600060208201905081810360008301526132be81613282565b9050919050565b7f4552433732313a2063616c6c6572206973206e6f7420746f6b656e206f776e6560008201527f72206e6f7220617070726f766564000000000000000000000000000000000000602082015250565b6000613321602e836129ac565b915061332c826132c5565b604082019050919050565b6000602082019050818103600083015261335081613314565b9050919050565b7f4e487b7100000000000000000000000000000000000000000000000000000000600052601160045260246000fd5b600061339182612a53565b915061339c83612a53565b92508282019050808211156133b4576133b3613357565b5b92915050565b60006133c582612a53565b91507fffffffffffffffffffffffffffffffffffffffffffffffffffffffffffffffff82036133f7576133f6613357565b5b600182019050919050565b7f4e487b7100000000000000000000000000000000000000000000000000000000600052603260045260246000fd5b7f4552433732313a20696e76616c696420746f6b656e2049440000000000000000600082015250565b60006134676018836129ac565b915061347282613431565b602082019050919050565b600060208201905081810360008301526134968161345a565b9050919050565b7f4552433732313a2061646472657373207a65726f206973206e6f74206120766160008201527f6c6964206f776e65720000000000000000000000000000000000000000000000602082015250565b60006134f96029836129ac565b91506135048261349d565b604082019050919050565b60006020820190508181036000830152613528816134ec565b9050919050565b7f4f6e6c79206f776e6572206f66206e66742063616e207265736c652069740000600082015250565b6000613565601e836129ac565b91506135708261352f565b602082019050919050565b6000602082019050818103600083015261359481613558565b9050919050565b7f5072696365206d73757420626520657175616c20746f206c697374696e67207060008201527f7269636500000000000000000000000000000000000000000000000000000000602082015250565b60006135f76024836129ac565b91506136028261359b565b604082019050919050565b60006020820190508181036000830152613626816135ea565b9050919050565b600061363882612a53565b915061364383612a53565b925082820390508181111561365b5761365a613357565b5b92915050565b7f6f6e6c79206f776e6572206f66206e66744d61726b6574506c6163652063616e60008201527f2075706461746520746865206c697374696e6720707269636500000000000000602082015250565b60006136bd6039836129ac565b91506136c882613661565b604082019050919050565b600060208201905081810360008301526136ec816136b0565b9050919050565b7f506c65617365207375626d6974207468652061736b696e67206d6f6e6579207460008201527f6f20636f6d706c65746520746865207075726368617365000000000000000000602082015250565b600061374f6037836129ac565b915061375a826136f3565b604082019050919050565b6000602082019050818103600083015261377e81613742565b9050919050565b600081905092915050565b600061379b826129a1565b6137a58185613785565b93506137b58185602086016129bd565b80840191505092915050565b60006137cd8285613790565b91506137d98284613790565b91508190509392505050565b7f4552433732313a207472616e736665722066726f6d20696e636f72726563742060008201527f6f776e6572000000000000000000000000000000000000000000000000000000602082015250565b60006138416025836129ac565b915061384c826137e5565b604082019050919050565b6000602082019050818103600083015261387081613834565b9050919050565b7f4552433732313a207472616e7366657220746f20746865207a65726f2061646460008201527f7265737300000000000000000000000000000000000000000000000000000000602082015250565b60006138d36024836129ac565b91506138de82613877565b604082019050919050565b60006020820190508181036000830152613902816138c6565b9050919050565b7f4552433732313a206d696e7420746f20746865207a65726f2061646472657373600082015250565b600061393f6020836129ac565b915061394a82613909565b602082019050919050565b6000602082019050818103600083015261396e81613932565b9050919050565b7f4552433732313a20746f6b656e20616c7265616479206d696e74656400000000600082015250565b60006139ab601c836129ac565b91506139b682613975565b602082019050919050565b600060208201905081810360008301526139da8161399e565b9050919050565b7f45524337323155524953746f726167653a2055524920736574206f66206e6f6e60008201527f6578697374656e7420746f6b656e000000000000000000000000000000000000602082015250565b6000613a3d602e836129ac565b9150613a48826139e1565b604082019050919050565b60006020820190508181036000830152613a6c81613a30565b9050919050565b60008190508160005260206000209050919050565b60006020601f8301049050919050565b600082821b905092915050565b600060088302613ad57fffffffffffffffffffffffffffffffffffffffffffffffffffffffffffffffff82613a98565b613adf8683613a98565b95508019841693508086168417925050509392505050565b6000819050919050565b6000613b1c613b17613b1284612a53565b613af7565b612a53565b9050919050565b6000819050919050565b613b3683613b01565b613b4a613b4282613b23565b848454613aa5565b825550505050565b600090565b613b5f613b52565b613b6a818484613b2d565b505050565b5b81811015613b8e57613b83600082613b57565b600181019050613b70565b5050565b601f821115613bd357613ba481613a73565b613bad84613a88565b81016020851015613bbc578190505b613bd0613bc885613a88565b830182613b6f565b50505b505050565b600082821c905092915050565b6000613bf660001984600802613bd8565b1980831691505092915050565b6000613c0f8383613be5565b9150826002028217905092915050565b613c28826129a1565b67ffffffffffffffff811115613c4157613c40612daa565b5b613c4b8254613170565b613c56828285613b92565b600060209050601f831160018114613c895760008415613c77578287015190505b613c818582613c03565b865550613ce9565b601f198416613c9786613a73565b60005b82811015613cbf57848901518255600182019150602085019450602081019050613c9a565b86831015613cdc5784890151613cd8601f891682613be5565b8355505b6001600288020188555050505b505050505050565b7f5072696365206d7573742062652061746c65617374206f6e6500000000000000600082015250565b6000613d276019836129ac565b9150613d3282613cf1565b602082019050919050565b60006020820190508181036000830152613d5681613d1a565b9050919050565b7f5072696365206d75737420626520657175616c20746f206c697374696e67207060008201527f7269636500000000000000000000000000000000000000000000000000000000602082015250565b6000613db96024836129ac565b9150613dc482613d5d565b604082019050919050565b60006020820190508181036000830152613de881613dac565b9050919050565b613df881612c36565b82525050565b600060a082019050613e136000830188612b7e565b613e206020830187613def565b613e2d6040830186613def565b613e3a6060830185612b7e565b613e476080830184612977565b9695505050505050565b7f436f756e7465723a2064656372656d656e74206f766572666c6f770000000000600082015250565b6000613e87601b836129ac565b9150613e9282613e51565b602082019050919050565b60006020820190508181036000830152613eb681613e7a565b9050919050565b7f4552433732313a20617070726f766520746f2063616c6c657200000000000000600082015250565b6000613ef36019836129ac565b9150613efe82613ebd565b602082019050919050565b60006020820190508181036000830152613f2281613ee6565b9050919050565b7f4552433732313a207472616e7366657220746f206e6f6e20455243373231526560008201527f63656976657220696d706c656d656e7465720000000000000000000000000000602082015250565b6000613f856032836129ac565b9150613f9082613f29565b604082019050919050565b60006020820190508181036000830152613fb481613f78565b9050919050565b600081519050919050565b600082825260208201905092915050565b6000613fe282613fbb565b613fec8185613fc6565b9350613ffc8185602086016129bd565b614005816129e7565b840191505092915050565b60006080820190506140256000830187612ae8565b6140326020830186612ae8565b61403f6040830185612b7e565b81810360608301526140518184613fd7565b905095945050505050565b60008151905061406b81612912565b92915050565b600060208284031215614087576140866128dc565b5b60006140958482850161405c565b91505092915050565b7f4e487b7100000000000000000000000000000000000000000000000000000000600052601260045260246000fd5b60006140d882612a53565b91506140e383612a53565b9250826140f3576140f261409e565b5b828204905092915050565b600061410982612a53565b915061411483612a53565b9250826141245761412361409e565b5b82820690509291505056fea2646970667358221220f57d6e6087a791b28cf294c2685d67cf8c4ff288117024fc93dc010d22940eeb64736f6c63430008120033",
  "linkReferences": {},
  "deployedLinkReferences": {}
}